{
  "contractName": "ToDoApp",
  "abi": [
    {
      "inputs": [
        {
          "internalType": "string",
          "name": "_name",
          "type": "string"
        }
      ],
      "name": "createList",
      "outputs": [],
      "stateMutability": "nonpayable",
      "type": "function"
    },
    {
      "inputs": [],
      "name": "getLists",
      "outputs": [
        {
          "components": [
            {
              "internalType": "uint256",
              "name": "id",
              "type": "uint256"
            },
            {
              "internalType": "string",
              "name": "name",
              "type": "string"
            }
          ],
          "internalType": "struct ToDoApp.List[]",
          "name": "",
          "type": "tuple[]"
        }
      ],
      "stateMutability": "view",
      "type": "function",
      "constant": true
    },
    {
      "inputs": [
        {
          "internalType": "string",
          "name": "_name",
          "type": "string"
        },
        {
          "internalType": "uint256",
          "name": "listID",
          "type": "uint256"
        }
      ],
      "name": "createTask",
      "outputs": [],
      "stateMutability": "nonpayable",
      "type": "function"
    },
    {
      "inputs": [
        {
          "internalType": "uint256",
          "name": "listID",
          "type": "uint256"
        }
      ],
      "name": "getTasks",
      "outputs": [
        {
          "components": [
            {
              "internalType": "uint256",
              "name": "id",
              "type": "uint256"
            },
            {
              "internalType": "string",
              "name": "name",
              "type": "string"
            },
            {
              "internalType": "bool",
              "name": "completed",
              "type": "bool"
            }
          ],
          "internalType": "struct ToDoApp.Task[]",
          "name": "",
          "type": "tuple[]"
        }
      ],
      "stateMutability": "view",
      "type": "function",
      "constant": true
    },
    {
      "inputs": [
        {
          "internalType": "uint256",
          "name": "taskID",
          "type": "uint256"
        },
        {
          "internalType": "uint256",
          "name": "listID",
          "type": "uint256"
        }
      ],
      "name": "completeTask",
      "outputs": [],
      "stateMutability": "nonpayable",
      "type": "function"
    }
  ],
  "bytecode": "0x608060405234801561001057600080fd5b50610c52806100206000396000f3fe608060405234801561001057600080fd5b5060043610610074576000357c01000000000000000000000000000000000000000000000000000000009004806304fe2b3414610079578063108c8ae414610095578063b8dcc68f146100b1578063cb4b0909146100cd578063cf8f4be2146100eb575b600080fd5b610093600480360381019061008e919061074d565b61011b565b005b6100af60048036038101906100aa91906107ce565b610223565b005b6100cb60048036038101906100c69190610708565b61029c565b005b6100d56103a5565b6040516100e29190610a00565b60405180910390f35b610105600480360381019061010091906107a5565b6104dd565b6040516101129190610a22565b60405180910390f35b600060405180606001604052806001600081548092919061013b90610b4d565b91905055815260200185858080601f016020809104026020016040519081016040528093929190818152602001838380828437600081840152601f19601f820116905080830192505050505050508152602001600015158152509050600360008381526020019081526020016000208190806001815401808255809150506001900390600052602060002090600302016000909190919091506000820151816000015560208201518160010190805190602001906101fa929190610606565b5060408201518160020160006101000a81548160ff021916908315150217905550505050505050565b6001600360008481526020019081526020016000208281548110610270577f4e487b7100000000000000000000000000000000000000000000000000000000600052603260045260246000fd5b906000526020600020906003020160020160006101000a81548160ff0219169083151502179055505050565b600060405180604001604052806000808154809291906102bb90610b4d565b91905055815260200184848080601f016020809104026020016040519081016040528093929190818152602001838380828437600081840152601f19601f820116905080830192505050505050508152509050600260003373ffffffffffffffffffffffffffffffffffffffff1673ffffffffffffffffffffffffffffffffffffffff16815260200190815260200160002081908060018154018082558091505060019003906000526020600020906002020160009091909190915060008201518160000155602082015181600101908051906020019061039d929190610606565b505050505050565b6060600260003373ffffffffffffffffffffffffffffffffffffffff1673ffffffffffffffffffffffffffffffffffffffff168152602001908152602001600020805480602002602001604051908101604052809291908181526020016000905b828210156104d457838290600052602060002090600202016040518060400160405290816000820154815260200160018201805461044390610b1b565b80601f016020809104026020016040519081016040528092919081815260200182805461046f90610b1b565b80156104bc5780601f10610491576101008083540402835291602001916104bc565b820191906000526020600020905b81548152906001019060200180831161049f57829003601f168201915b50505050508152505081526020019060010190610406565b50505050905090565b606060036000838152602001908152602001600020805480602002602001604051908101604052809291908181526020016000905b828210156105fb57838290600052602060002090600302016040518060600160405290816000820154815260200160018201805461054f90610b1b565b80601f016020809104026020016040519081016040528092919081815260200182805461057b90610b1b565b80156105c85780601f1061059d576101008083540402835291602001916105c8565b820191906000526020600020905b8154815290600101906020018083116105ab57829003601f168201915b505050505081526020016002820160009054906101000a900460ff16151515158152505081526020019060010190610512565b505050509050919050565b82805461061290610b1b565b90600052602060002090601f016020900481019282610634576000855561067b565b82601f1061064d57805160ff191683800117855561067b565b8280016001018555821561067b579182015b8281111561067a57825182559160200191906001019061065f565b5b509050610688919061068c565b5090565b5b808211156106a557600081600090555060010161068d565b5090565b60008083601f8401126106bb57600080fd5b8235905067ffffffffffffffff8111156106d457600080fd5b6020830191508360018202830111156106ec57600080fd5b9250929050565b60008135905061070281610c05565b92915050565b6000806020838503121561071b57600080fd5b600083013567ffffffffffffffff81111561073557600080fd5b610741858286016106a9565b92509250509250929050565b60008060006040848603121561076257600080fd5b600084013567ffffffffffffffff81111561077c57600080fd5b610788868287016106a9565b9350935050602061079b868287016106f3565b9150509250925092565b6000602082840312156107b757600080fd5b60006107c5848285016106f3565b91505092915050565b600080604083850312156107e157600080fd5b60006107ef858286016106f3565b9250506020610800858286016106f3565b9150509250929050565b60006108168383610964565b905092915050565b600061082a83836109a1565b905092915050565b600061083d82610a64565b6108478185610a9f565b93508360208202850161085985610a44565b8060005b858110156108955784840389528151610876858261080a565b945061088183610a85565b925060208a0199505060018101905061085d565b50829750879550505050505092915050565b60006108b282610a6f565b6108bc8185610ab0565b9350836020820285016108ce85610a54565b8060005b8581101561090a57848403895281516108eb858261081e565b94506108f683610a92565b925060208a019950506001810190506108d2565b50829750879550505050505092915050565b61092581610ad2565b82525050565b600061093682610a7a565b6109408185610ac1565b9350610950818560208601610ae8565b61095981610bf4565b840191505092915050565b600060408301600083015161097c60008601826109f1565b5060208301518482036020860152610994828261092b565b9150508091505092915050565b60006060830160008301516109b960008601826109f1565b50602083015184820360208601526109d1828261092b565b91505060408301516109e6604086018261091c565b508091505092915050565b6109fa81610ade565b82525050565b60006020820190508181036000830152610a1a8184610832565b905092915050565b60006020820190508181036000830152610a3c81846108a7565b905092915050565b6000819050602082019050919050565b6000819050602082019050919050565b600081519050919050565b600081519050919050565b600081519050919050565b6000602082019050919050565b6000602082019050919050565b600082825260208201905092915050565b600082825260208201905092915050565b600082825260208201905092915050565b60008115159050919050565b6000819050919050565b60005b83811015610b06578082015181840152602081019050610aeb565b83811115610b15576000848401525b50505050565b60006002820490506001821680610b3357607f821691505b60208210811415610b4757610b46610bc5565b5b50919050565b6000610b5882610ade565b91507fffffffffffffffffffffffffffffffffffffffffffffffffffffffffffffffff821415610b8b57610b8a610b96565b5b600182019050919050565b7f4e487b7100000000000000000000000000000000000000000000000000000000600052601160045260246000fd5b7f4e487b7100000000000000000000000000000000000000000000000000000000600052602260045260246000fd5b6000601f19601f8301169050919050565b610c0e81610ade565b8114610c1957600080fd5b5056fea264697066735822122017fcd2fd8f0454bed6daa950a0fbc55684f95dff7173046cc9db67686bc165a164736f6c63430008030033",
  "immutableReferences": {},
  "source": "pragma solidity^0.8.3;\n\ncontract ToDoApp {\n\n    uint listIndex;\n    uint taskIndex;\n\n    struct Task {\n        uint id;\n        string name ;\n        bool completed ;\n    }\n\n    struct List {\n        uint id;\n        string name;\n    }\n\n    mapping (address => List[]) lists; // maps user address to array of lists\n    mapping (uint => Task[]) tasks; // maps listID to array of tasks\n\n    function createList(string calldata _name) public {\n        List memory list = List({\n            id: listIndex++,\n            name: _name\n        });\n\n        lists[msg.sender].push(list);\n    }\n\n    function getLists() public view returns (List[] memory) {\n        return lists[msg.sender];\n    }\n\n\n    function createTask(string calldata _name, uint listID) public {\n        Task memory _task = Task({\n            id: taskIndex++,\n            name: _name,\n            completed: false\n        });\n\n        tasks[listID].push(_task);\n    }\n    \n    function getTasks(uint listID) public view returns(Task[] memory){\n        return tasks[listID];\n    }\n\n    function completeTask(uint taskID, uint listID) public {\n        tasks[taskID][listID].completed = true;\n    }\n}",
  "sourcePath": "/Users/emiliomarin/github/emiliomarin/todo-list-blockchain/contracts/todoapp.sol",
  "compiler": {
    "name": "solc",
    "version": "0.8.3+commit.8d00100c.Emscripten.clang"
  },
  "schemaVersion": "3.3.4",
  "updatedAt": "2021-03-30T11:22:18.121Z",
  "networkType": "ethereum",
  "devdoc": {
    "kind": "dev",
    "methods": {},
    "version": 1
  },
  "userdoc": {
    "kind": "user",
    "methods": {},
    "version": 1
  }
}